:100000000C9442020C9489020C9489020C9489028B
:100010000C9489020C9489020C9489020C94890234
:100020000C9489020C9489020C9499210C946C22F2
:100030000C94CD180C9489020C9489020C948902BA
:100040000C9489020C9489020C9489020C94890204
:100050000C9489020C942E190C9489020C94890238
:100060000C9489020C9489020C9489020C948902E4
:100070000C9489020C9489020C9489020C948902D4
:100080000C9489020C9489020C9489020C948902C4
:100090000C9489020C9489020C9489020C948902B4
:1000A0000C9489020C9489020C94890209000100C5
:1000B0000100010001000100010001000100010038
:1000C000010001000100010001000100643214641C
:1000D0003214783C1E1E140A0500000000010101C4
:1000E0000202030405050607090A0B0C0E0F111284
:1000F000141517191B1D1F212325282A2C2F3134D5
:1001000036393B3E414346494C4F5255585A5D6142
:1001100064676A6D707376797C7F8386898C8F9231
:1001200095989B9EA2A5A7AAADB0B3B6B9BCBEC117
:10013000C4C6C9CBCED0D3D5D7DADCDEE0E2E4E664
:10014000E8EAEBEDEEF0F1F3F4F5F6F8F9FAFAFB84
:10015000FCFDFDFEFEFEFFFFFFFFFFFFFFFEFEFEBC
:10016000FDFDFCFBFAFAF9F8F6F5F4F3F1F0EEED2B
:10017000EBEAE8E6E4E2E0DEDCDAD7D5D3D0CECBBA
:10018000C9C6C4C1BEBCB9B6B3B0ADAAA7A5A29E2C
:100190009B9895928F8C898683807C797673706D1D
:1001A0006A6764615D5A5855524F4C494643413E17
:1001B0003B393634312F2C2A282523211F1D1B19AA
:1001C00017151412110F0E0C0B0A0907060505046A
:1001D0000302020101010000000000000000010113
:1001E00001010101010101020202020202020202F6
:1001F00003030303030303030404040404040505C5
:100200000505050606060606070707070808080885
:100210000909090A0A0A0A0B0B0B0C0C0C0D0D0D2F
:100220000E0E0F0F0F1010111111121213131414C0
:10023000151516161717181819191A1A1B1C1C1D34
:100240001D1E1F1F2020212222232425252627278B
:1002500028292A2B2B2C2D2E2F2F303132333435B9
:1002600036363738393A3B3C3D3E3F4041424344C5
:10027000464748494A4B4C4D4F505152535556579B
:10028000585A5B5C5E5F606263646667696A6C6D46
:100290006E707173747678797B7C7E8081838486BE
:1002A000888A8B8D8F91929496989A9B9D9FA1A3FB
:1002B000A5A7A9ABADAFB1B3B5B7B9BBBDBFC1C4FD
:1002C000C6C8CACCCFD1D3D6D8DADCDFE1E4E6E8C1
:1002D000EBEDF0F2F5F7FAFCFF12036B0065007925
:1002E0000062006F0061007200640000001603717C
:1002F000006D006B006200750069006C00640065B1
:1003000000720000000403090409026D00040100EA
:10031000A0FA0904000001030101000921110100F4
:10032000012240000705810308000A0904010001B9
:1003300003010200092111010001224D000705827D
:100340000308000A0904020001030000000921114A
:100350000100012236000705830308000A0904038F
:1003600000010300000009211101000122390007EA
:100370000584032000011201100100000008EDFEB9
:10038000606001000102000105010906A1010507E5
:1003900019E029E715002501950875018102050876
:1003A00019012905950575019102950175039101C2
:1003B0000507190029F71500250195F87501810237
:1003C000C005010980A10185021601002603001A5B
:1003D00081002A8300751095018100C0050C090178
:1003E000A1018503160100269C021A01002A9C0225
:1003F000751095018100C005010902A1010901A143
:1004000000050919012905150025019505750181CA
:100410000295017503810105010930093115812516
:100420007F95027508810609381581257F9501752C
:10043000088106050C0A38021581257F950175088B
:100440008106C0C005010906A101050719E029E7D9
:100450001500250195087501810295017508810136
:100460000508190129059505750191029501750386
:1004700091010507190029FF150026FF0095067553
:10048000088100C011241FBECFEFDAE0DEBFCDBF70
:1004900004B603FE27C08091290290912A02A09100
:1004A0002B02B0912C028730904BA740B04BD1F477
:1004B0001092290210922A0210922B0210922C0202
:1004C00014BE84B7877F84BF0FB6F894A895809137
:1004D0006000886180936000109260000FBEE0E0D1
:1004E000F8E3099511E0A0E0B1E0E8EEFBE402C01A
:1004F00005900D92A832B107D9F722E0A8E2B1E049
:1005000001C01D92A932B207E1F70E94ED1E0C94C2
:10051000BD250C94000090E080E008950E94AF0992
:100520004FEF6FEF90E080E00E94130886E00C949C
:100530001909089581E00895089581E008950C94C3
:100540009A020E9423112FEF84E39CE02150804007
:100550009040E1F700C000000C945119EF92FF9217
:100560000F931F93CF93DF937C01DC010D911C91BE
:10057000119780915E01811143C012968C9188235E
:10058000D1F1C8010E94A216C82F682FC8010E948D
:100590005116B8018C2F0E941904EC01B7010E947A
:1005A0009F02882309F468C0B701CE010E941C068F
:1005B000882309F461C0CE33B0E7DB0770F4C4339D
:1005C000E0E7DE0710F5C130F0E7DF0709F45CC0B3
:1005D00050F5C115D04709F44AC081E080932A0143
:1005E00080932B01C701DF91CF911F910F91FF9055
:1005F000EF900C949D02C8010E947C16C82FC9CFB1
:10060000C8010E94A216B801C6CFFE01E553F0470B
:10061000D70112968C91E930F10508F040C0E15401
:10062000FA4D0C946F25CE01825090474397A8F65F
:10063000F70182818823B1F20E946418811102C0FF
:100640000E9443180E94811890E090931B028093AF
:100650001A02FE01E350F04780911A028160E231F4
:10066000F10508F047C0E853FA4D0C946F25F701E7
:10067000828181110E94A10280E0DF91CF911F91C0
:100680000F91FF90EF900895D70112968C918823D7
:1006900099F38091C90181608093C901EDCF8823CE
:1006A00059F30E94D709E8CF882331F30E94A509A6
:1006B000E3CF882309F30E948208DECF8823E1F28A
:1006C0000E949A08D9CF8823B9F20E94B908D4CFE2
:1006D000882391F20E94D108CFCF882369F20E942B
:1006E000E908CACF882341F20E940109C5CF809151
:1006F0001A02826080931A0280911A020E94851861
:100700000E942311B9CF80911A028460F3CF8091A7
:100710001A028860EFCF80911A028061EBCF80913E
:100720001A028062E7CF80911A028064E3CF809141
:100730001A028068DFCF80911A028C60DBCF809133
:100740001A028E7FD7CF80911A028D7FD3CF8091EE
:100750001A028B7FCFCF80911A02877FCBCF8091F7
:100760001A028F7EC7CF80911A028F7DC3CF8091EE
:100770001A028F7BBFCF80911A028F77BBCF8091F7
:100780001A02837FB7CF90911A02892F97FB87F9BE
:100790008058B0CF882361F010922A010E94FD1882
:1007A000909329018093280182E00E94880E64CFF3
:1007B00080912A0181110FC0809128019091290117
:1007C0000E940919883C910530F486E20E945D0D73
:1007D00086E20E94390E82E00E948F0E4DCF882360
:1007E00051F010922B010E94FD18909329018093E3
:1007F000280180E2DACF80912B0181110FC0809116
:100800002801909129010E940919883C910530F432
:1008100087E20E945D0D87E20E94390E80E2DCCF04
:100820000C946B060C946D060C949C020C941404AE
:100830000895272F260F3327331FF901E80FF11DE5
:10084000EE0FFF1FE455FF4F859194910895FC0131
:10085000EE0FFF1FE453FF4F8591949108950E947E
:1008600019040E94A0059C01811540E4940708F03A
:1008700097C0211580E3380708F0FAC0203E310503
:1008800008F074C0203C310508F0E5C0283A310575
:1008900088F4253A310508F0E2C02130310509F429
:1008A00077C0C9010497813A910508F471C030E01E
:1008B00020E06EC0C901885A91094597C0F7283ACF
:1008C000310509F4FEC0293A310509F4FDC02A3A80
:1008D000310509F4FCC02B3A310509F4FBC02C3A70
:1008E000310509F4FAC02B3B310509F4F9C02C3B62
:1008F000310509F4F8C02D3A310509F4F7C0203B61
:10090000310509F4F6C02E3A310509F4F5C02F3A45
:10091000310509F4F4C0213B310509F4F3C0223B51
:10092000310509F4F2C0233B310509F4F1C0243B41
:10093000310509F4F0C0253B310509F4EFC0263B31
:10094000310509F4EEC0273B310509F4EDC0283B21
:10095000310509F4ECC0293B310509F4EBC02A3B11
:10096000310509F4EAC020E034E412C0211590E218
:10097000390780F42F3F310509F050F4283E310546
:1009800038F0C901805F91093065409708F08FCF3A
:10099000C9010895C9019F700E9427049C01F8CFE6
:1009A0008115944508F041C0211583E5380708F00A
:1009B0006AC0211592E5390738F5211541E534075C
:1009C00008F05CC0211580E5380708F454C0C9015F
:1009D00034E0969587953A95E1F78370422F4695D6
:1009E0004695437090E2499FA0011124582B822F15
:1009F000837021E030E002C0220F331F8A95E2F7B6
:100A0000242B352B3C68C4CFC9018370992741E062
:100A100050E002C0440F551F8A95E2F726952695AF
:100A200080E2289F90011124EBCF211596E539072C
:100A300048F4922F882721153545C8F59C01246F6D
:100A4000306AA6CFC90190563F708115904108F0D9
:100A50002ECF30629DCFC901805C91099DCF253A90
:100A6000310549F1263A310549F522E830E490CFC5
:100A70003327306C8DCF3F70306A8ACF322F2227D8
:100A8000216F306A85CFC9018370992741E050E01A
:100A900002C0440F551F8A95E2F72695269580E2FD
:100AA000289F90011124242B352B3A6871CF882779
:100AB0009F719C01CECF21E830E46ACF23E830E477
:100AC00067CF22EE34E464CF29EE34E461CF2AEE1E
:100AD00034E45ECF25EB34E45BCF26EB34E458CF2F
:100AE00023EB34E455CF24EB34E452CF27EB34E44A
:100AF0004FCF2CEC34E44CCF2DEC34E449CF23E839
:100B000035E446CF2AE835E443CF22E935E440CF47
:100B100024E935E43DCF21E236E43ACF23E236E45E
:100B200037CF24E236E434CF25E236E431CF26E273
:100B300036E42ECF27E236E42BCF2AE236E428CF64
:100B4000803E910581F1C8F48133910509F462C0BA
:100B500048F48932910509F456C08A32910509F4A6
:100B600060C0089589339105B9F082389105A1F0EC
:100B70008533910509F440C00895863E910561F1E1
:100B800038F4823E9105B1F0833E9105E1F008957D
:100B9000873E910551F1089520911A022370D9F0F2
:100BA00080EE90E0089520911A0220FF14C089E39E
:100BB00090E0089520911A0222FF0DC024FD09C083
:100BC00083EE90E0089520911A0222FD31C024FFA7
:100BD00002C090E080E0089520911A0223FFFBCF2D
:100BE00024FDF7CF87EE90E0089520911A0223FFAD
:100BF000EECF86EE90E0089520911A0225FFEBCF0C
:100C000089E290E0089520911A0225FFE4CF85E360
:100C100090E0089520911A0226FFDDCF8AE290E04D
:100C2000089520911A0226FFD6CF81E390E008951F
:100C300082EE90E0089508950F931F93CF938C0157
:100C4000FB018281811106C0C1E08C2FCF911F91E1
:100C50000F910895C0913901C11125C00531104788
:100C600099F70E941B0681E0809339010E94FD18CC
:100C7000909338018093370110922C0110922E012D
:100C800010922D011092300110922F01109232011A
:100C900010923101109234011092330110923601FA
:100CA00010923501D2CF80913701909138010E9486
:100CB0000919883C910540F680912C01E82FF0E05D
:100CC000EE0FFF1FE35DFE4F118300838F5F809364
:100CD0002C01C0E0BACF0C948E020C94990285B717
:100CE000806885BF85B7806885BF5098589A5198AD
:100CF000599A10923B0110923A010C941004909171
:100D00003A0110923A01509A589880EA8A95F1F780
:100D100081E0499980E020913A01822B80933A0149
:100D20005098589A80913A01981749F081E0809341
:100D30003C010E94FD1890933E0180933D018091FB
:100D40003C01882371F080913D0190913E010E9409
:100D50000919069730F080913A0180933B01109277
:100D60003C010E94120481E00895E82FF0E0E55C68
:100D7000FE4F8081089508959C01CB016BB1542FE3
:100D8000509556236BB1462B6FB7F894820F931F83
:100D90002817390711F46FBF0895F90171919F0168
:100DA000E8E04BB9000000C077FF5BB9770F0000A7
:100DB00000C000C000C05BB900C0EA9591F7E8CF61
:100DC000FC019AB1942B9AB99B01220F331F620F39
:100DD000731FCF010E94BC0687EC90E00197F1F7EA
:100DE00000C00000089540E10C94E006AF92BF926D
:100DF000CF92DF92EF92FF920F931F93CF93DF93E7
:100E00007C01E901842F242F662309F43FC0C42EFE
:100E1000D12C8FEF90E0861B9109489F8001499F5C
:100E2000100D1124212F812F9927C81AD90A9CE36C
:100E3000A92EB12CC701B5010E944725FB01BC01B9
:100E4000C69EC001C79E900DD69E900D1124B5017F
:100E50000E944725E330F10509F443C080EFE8160E
:100E6000F10468F4E130F10591F13297A1F18CE3DE
:100E7000E816F10440F180E020E040E007C0E430F3
:100E8000F10599F1842F861B3597A9F7E42FF0E03F
:100E9000E752FE4F4491E22FF0E0E752FE4F94916B
:100EA000E82FF0E0E752FE4FE49149839883EA830C
:100EB000DF91CF911F910F91FF90EF90DF90CF9036
:100EC000BF90AF900895812F262F210FDFCF812F64
:100ED000242F461BDBCF862F810FE42F412F2E2F8F
:100EE000D5CFE42FE61B842FF9CF842F462F410F57
:100EF000CDCF88E090E00C947D25AB01BC0188E06B
:100F000090E00C949B25CF93DF9300D000D0CDB719
:100F1000DEB7E6EFF1E083E0808311828FEF82831A
:100F200083838091F6019091F701A091F801B0912F
:100F3000F90189839A83AB83BC83BC01CD010F90F7
:100F40000F900F900F90DF91CF910C947D078091BF
:100F5000F601EEEFF1E080FF06C068E070E08EEF92
:100F600091E00C94F306118210821282339682E093
:100F7000E631F807C1F7F1CFEEEFF1E0818360834E
:100F80004283339692E0E631F907C1F70C94A70744
:100F9000EF92FF920F931F93CF93DF9300D00F92A6
:100FA000CDB7DEB7182FE92EF62E042F8091F6016B
:100FB0009091F701A091F801B091F9018093FA01A5
:100FC0009093FB01A093FC01B093FD018091F60189
:100FD00080FF1FC09E012F5F3F4F812F9E2D0E94DB
:100FE000F6068091FA0110FB87F98093FA011695B5
:100FF0008091FB018078182BE0FA17F91093FB0120
:10100000F092FC010093FD014B8169818A810E946D
:10101000BC070F900F900F90DF91CF911F910F9110
:10102000FF90EF9008950F931F93CF93DF9300D01D
:1010300000D00F92CDB7DEB789839D83062F142F82
:101040008091F60180FF54C0982F9E77923091F5E1
:1010500089819D810E94C8078091F601B981B0FB0A
:1010600087F98093F601B6958091F7018078B82BC7
:101070008D8180FBB7F9B093F7010093F8011093CD
:10108000F9018091F6019091F701A091F801B091DA
:10109000F90189839A83AB83BC83BC01CD010F9096
:1010A0000F900F900F900F90DF91CF911F910F91A4
:1010B0000C947D07982F96959F732EE3290F2F731D
:1010C000243018F41091F901C7CF965C9F739930C2
:1010D00018F6881F8827881F9091F7019D83990F24
:1010E000982B9983AD81A7FBAA27A0F9AD83B4CF34
:1010F0000F900F900F900F900F90DF91CF911F9155
:101100000F910895E6EFF1E02081221F2227221F90
:101110003091F701432F440F842F822B37FB9927FF
:1011200090F9089668E671E00E945B254381628130
:101130000C9413082091F601221F2227221F3091C0
:10114000F701432F440F842F822B37FB992790F907
:101150008830910540F4805A9E4F4091F90160918A
:10116000F8010C941308089768E671E00E945B256B
:10117000F4CF6091F801683F90F4685F8091F601C8
:10118000881F8827881F9091F701292F220F97FB2E
:10119000992790F94091F901822B0C9413086FEF75
:1011A000EDCF6091F801683090F068508091F601C1
:1011B000881F8827881F9091F701292F220F97FBFE
:1011C000992790F94091F901822B0C94130860E063
:1011D000EDCF4091F901483F90F4485F8091F601CE
:1011E000881F8827881F9091F701292F220F97FBCE
:1011F000992790F96091F801822B0C9413084FEF16
:10120000EDCF4091F901483090F048508091F601BF
:10121000881F8827881F9091F701292F220F97FB9D
:10122000992790F96091F801822B0C94130840E003
:10123000EDCFCF93DF9300D000D0CDB7DEB7909144
:10124000F60190FF47C09178811132C0926090936F
:10125000F6018091F6019091F701A091F801B0910B
:10126000F90189839A83AB83BC83BC01CD010E94C1
:101270007D078091F601982F9E77923009F51092A4
:101280005401881F8827881F9091F701292F220F6A
:1012900097FB992790F94091F9016091F801822B11
:1012A0000F900F900F900F90DF91CF910C94130837
:1012B000893110F09063CBCF8F73880F982BC7CFF5
:1012C000982F9695925C9F739631D8F691E0909303
:1012D0005401D7CF0F900F900F900F90DF91CF91C7
:1012E00008958091C90181608093C90181E0809354
:1012F00055010E946418811104C00E9443180E9485
:1013000083070E9479076093F6017093F701809339
:10131000F8019093F9016E7761F40E9483070E94AF
:1013200079076093F6017093F7018093F801909329
:10133000F90181E0809354018091F60180FF04C09F
:1013400086958F730C94190908958091F6018695FE
:101350008F738F5F893108F081E00C941909CF9366
:10136000DF9300D000D0CDB7DEB7A6EFB1E08C910F
:1013700081608C938091F6019091F701A091F80122
:10138000B091F90189839A83AB83BC83BC01CD0101
:101390000E947D07A6EFB1E08C9186958F730F9028
:1013A0000F900F900F90DF91CF910C941909CF936C
:1013B000DF9300D000D0CDB7DEB79091F601892F32
:1013C0008E7F90FF81608093F6018091F60190916D
:1013D000F701A091F801B091F90189839A83AB8359
:1013E000BC83BC01CD010E947D078091F60180FF86
:1013F0000AC086958F730F900F900F900F90DF911A
:10140000CF910C941909109254019FEFA0E7B2E01C
:101410009150A040B040E1F700C000000F900F9045
:101420000F900F90DF91CF910C94A707CF93C82F07
:1014300080915201909153010E940919EC2FF0E024
:10144000EB52FF4FE491E817190609F010F50E94DE
:10145000FD189093530180935201E0915101F0E007
:10146000E752FF4F44918091F601881F8827881F1B
:101470009091F701292F220F97FB992790F96091FE
:10148000F801822B0E94C807809151018F5F8093E1
:101490005101CF910895CF93C82F80914F01909122
:1014A00050010E940919EC2FF0E0EE52FF4FE49139
:1014B000E817190609F0E8F40E94FD18909350010E
:1014C00080934F014091F9016091F80180914D01A5
:1014D00090914E010E94C80780914D0190914E015C
:1014E000019668E671E00E94472590934E01809333
:1014F0004D01CF910895CF92DF92EF92FF921F930B
:10150000CF93DF93182F80914B0190914C010E9453
:101510000919E12FE695F0E0EE52FF4FE491E8174C
:10152000190609F0C0F50E94FD1890934C018093B4
:101530004B018EEFE82E81E0F82ED0E0C0E098E677
:10154000C92EDD24D3948091490190914A018C0FDA
:101550009D1FB6010E94472597014091F9016091B6
:10156000F8010E94F606AD9683E0E80EF11CC8363D
:1015700081E0D80741F70E94A70780914901909127
:101580004A0110FF10C00196BE010E9447259093AA
:101590004A0180934901DF91CF911F91FF90EF9015
:1015A000DF90CF9008950197F2CFAF92BF92CF9284
:1015B000DF92EF92FF920F931F93CF93DF93C82F89
:1015C000DD24DA9480FD02C0DD24D39480914701AC
:1015D000909148010E940919C695EC2FF0E0E15363
:1015E000FF4FE491E817190611F008F053C00E946C
:1015F000FD189093480180934701CEEFD1E010E0B1
:1016000000E097E0A92EB12C198218821A8287E097
:10161000E82EF12CC12C809146018C0D87FD885F4E
:10162000082E000C990B80179107E9F42091F9011D
:101630002E9DC0012F9D900D1124B5010E945B25A8
:10164000462F8091F601881F8827881F9091F70107
:10165000592F550F97FB992790F99E016091F8013A
:10166000852B0E94F606CD0C81E0E81AF10899F668
:101670000F5F1F4F23960830110531F60E94A70710
:101680008091460191E0D91212C081110EC087E00D
:1016900080934601DF91CF911F910F91FF90EF90C2
:1016A000DF90CF90BF90AF9008958150F1CF90E040
:1016B000019687709927ECCFBF92CF92DF92EF927D
:1016C000FF920F931F93CF93DF93CDB7DEB7689749
:1016D0000FB6F894DEBF0FBECDBF182F8091440126
:1016E000909145010E940919E12FF0E0E453FF4F6A
:1016F000E491E817190611F008F071C00E94FD1876
:1017000090934501809344018E010F5F1F4FF12C90
:10171000E12C6801F801118210821282B12C9091A3
:10172000000180914301B99E800D112488300CF096
:1017300087E087FD80E0082E000C990B8E159F0531
:10174000A1F48091F601881F8827881F9091F701E6
:10175000592F550F97FB992790F998014091F9015E
:101760006091F801852B0E94F606B394F7E0BF1252
:10177000D6CF8FEFE81AF80A0D5F1F4FE8E0EE169C
:10178000F10441F6AEEFB1E089E090E09C012770F2
:101790003327F901EE0FFF1FE20FF31FEC0DFD1DC4
:1017A000218111962C93119720812C9322811296DE
:1017B0002C931297019613968131910539F70E9467
:1017C000A70790910001809143019130E1F48A3F95
:1017D000B4F489EF809343018FEF80930001689602
:1017E0000FB6F894DEBF0FBECDBFDF91CF911F9132
:1017F0000F91FF90EF90DF90CF90BF9008958150B0
:1018000080934301ECCF8F302CF08EE08093430126
:1018100081E0E3CF8F5FF4CFCF93DF9380914101DD
:10182000909142010E940919883E934028F10E943C
:10183000FD18909342018093410180913F01909166
:1018400040010196817099279093400180933F0158
:10185000CEEFD1E09E014091F9016091F80190E056
:1018600080E00E94F606239682E0C631D80791F701
:10187000DF91CF910C94A707DF91CF9108958091CC
:101880005401882371F18091F60186958F739EE350
:10189000980F9F73943018F482500C94160A9AE3B0
:1018A000980F9F73933018F486500C944B0A97E36B
:1018B000980F9F73963018F489500C947B0A91E32B
:1018C000980F9F73963018F48F500C94D50A9BE2B2
:1018D000980F9F73933018F485510C945C0B0C9403
:1018E0000C0C089590935B0180935A010895E09148
:1018F0005A01F0915B01309721F00190F081E02DC9
:10190000099480E00895E0915A01F0915B013097CD
:1019100021F00280F381E02D09940895E0915A01AD
:10192000F0915B01309721F00480F581E02D09945E
:10193000089520915801309159012817390771F005
:101940009093590180935801E0915A01F0915B0105
:10195000309721F00680F781E02D099408952091B9
:101960005601309157012817390771F090935701AC
:1019700080935601E0915A01F0915B01309721F07C
:101980000084F185E02D0994089508950C94C50C08
:101990000E94F4180E946F060E9495190C94710918
:1019A0000F931F93CF93DF9300D000D00F92CDB74A
:1019B000DEB70E947F0680E00E94B506182F809156
:1019C0005D01082F01278117A1F18091C90181FDD7
:1019D0000E94BB0600FF2DC019821A8211701B8362
:1019E0000E94FD188160782F9D838C8349815A81E4
:1019F0006B818D810E94340D80915D0191E089277A
:101A000080935D010E94421C0E94770C90915C01C2
:101A1000891701F10E94770C80935C010F900F9061
:101A20000F900F900F90DF91CF911F910F910C9419
:101A300016048FEF89838A831B820E94FD188160C0
:101A4000782F9D838C8349815A816B818D810E947F
:101A5000340DD8CF0F900F900F900F900F90DF9113
:101A6000CF911F910F910895CF93DF93CDB7DEB73C
:101A70002B970FB6F894DEBF0FBECDBF4F835887AC
:101A800069877A878B871E8285E0FE013796DE01A3
:101A9000119601900D928A95E1F749815A816B81E7
:101AA0007C818D819E812B960FB6F894DEBF0FBE90
:101AB000CDBFDF91CF910C94AB13882309F4D8C02C
:101AC000823871F40E94770C81FDD2C089E30E94B4
:101AD0004A170E94141889E30E9487170C9414185F
:101AE000833859F40E94770C80FDC2C083E50E94C0
:101AF0004A170E94141883E5EFCF843859F40E94E6
:101B0000770C82FDB5C087E40E944A170E94141822
:101B100087E4E2CF9CEF980F913A18F40E944A179D
:101B2000DDCF90E2980F983050F4877091E001C0BB
:101B3000990F8A95EAF7892F0E94CB17CFCF9BE5A3
:101B4000980F933070F4853A31F0863A39F083E893
:101B500090E00C94990C81E890E0FBCF82E890E053
:101B6000F8CF98E5980F953108F082C0883A09F4CB
:101B700040C0893A09F440C08A3A09F440C08B3A1F
:101B800009F440C08C3A09F440C08B3B09F440C0D2
:101B90008C3B09F440C08D3A09F440C0803B09F405
:101BA00040C08E3A09F440C08F3A09F440C0813BEE
:101BB00009F440C0823B09F440C0833B09F440C0B3
:101BC000843B09F440C0853B09F440C0863B09F4DE
:101BD00040C0873B09F440C0883B09F440C0893BC2
:101BE00009F440C08A3B09F440C090E080E00C94C6
:101BF000AF0C82EE90E0FBCF89EE90E0F8CF8AEE5A
:101C000090E0F5CF85EB90E0F2CF86EB90E0EFCF60
:101C100083EB90E0ECCF84EB90E0E9CF87EB90E0B2
:101C2000E6CF8CEC90E0E3CF8DEC90E0E0CF83E862
:101C300091E0DDCF8AE891E0DACF82E991E0D7CF79
:101C400084E991E0D4CF81E292E0D1CF83E292E0C7
:101C5000CECF84E292E0CBCF85E292E0C8CF86E29D
:101C600092E0C5CF87E292E0C2CF8AE292E0BFCF96
:101C70000895882309F44BC0823871F40E94770CD0
:101C800081FF45C089E30E944A170E94141889E326
:101C90000E9487170C941418833859F40E94770C0B
:101CA00080FF35C083E50E944A170E94141883E51F
:101CB000EFCF843859F40E94770C82FF28C087E464
:101CC0000E944A170E94141887E4E2CF9CEF980FF5
:101CD000913AF0F290E2980F983050F4877091E0CA
:101CE00001C0990F8A95EAF7892F0E94D117D2CFA8
:101CF0009BE5980F933020F490E080E00C94990CD1
:101D0000885A853120F490E080E00C94AF0C08955F
:101D1000882321F00E94CB170C941418089588236F
:101D200021F00E94D1170C94141808958F929F925D
:101D3000AF92BF92DF92EF92FF920F931F93CF93D8
:101D4000DF9300D000D00F92CDB7DEB77C016D835A
:101D50007983FC01058102950F70128111110E9497
:101D6000EA170E944317D82E882371F01123A1F09F
:101D70008D81805E883080F082E00E942D170E9465
:101D8000431791E0D82ED926E981E295EF70F0E073
:101D9000E652FA4D0C946F25D12CF6CF09810F70C5
:101DA000F981F07F11F00295007F1123B1F000233B
:101DB00061F08D81805E883018F02D81211109C07D
:101DC000802F0E94CB170E9414188D810E945D0DF8
:101DD00015C0802F0E94DC17F6CF8D810E94390E2E
:101DE000002361F08D81805E883018F03D813111D3
:101DF00029C0802F0E94D1170E941418DD2009F4F9
:101E0000D3C10E94201780FDCFC1F70112820E942A
:101E10001A170E946915C7010E94E5100E941A173F
:101E20000F900F900F900F900F90DF91CF911F9117
:101E30000F91FF90EF90DF90BF90AF909F908F90A9
:101E40000C948B15802F0E94E217D6CF49814F70DA
:101E5000B42E5981507F503219F0B29480EFB822DD
:101E60008D81882369F0813029F1112369F10023E4
:101E700059F0F701858180FFA8CF8F70858304C05A
:101E8000112361F0011104C08B2D0E94880EB6CF82
:101E90008B2D0130D1F70E94FE17B0CF011106C083
:101EA0000E9401188B2D0E948F0EA8CF013009F4DB
:101EB000A5CFF6CF112321F0063008F09FCFE4CF55
:101EC000053008F09BCFEECF002361F38D810E9497
:101ED000390E94CF898186958695837069F081301B
:101EE00009F08CCF8D8199819370111102C090E01F
:101EF00080E00E94AF0C82CF8D8199819370111187
:101F000002C090E080E00E94990C78CF8D8111236F
:101F100029F00E94501B0E94371C70CF0E94B81BF2
:101F2000FACF8981837009F05FC0111167CF2D81CD
:101F3000229526952770220F220F8D818F7090E0B9
:101F4000B0E0A0E04C015D01022E04C0880C991C99
:101F5000AA1CBB1C0A94D2F7FD8160E070E0CB01A3
:101F6000F4FF0FC06FE070E080E090E004C0660F07
:101F7000771F881F991F2A95D2F7609570958095D5
:101F8000909529812695269523702D832230B1F0D6
:101F9000233019F19B01AC01282939294A295B29F1
:101FA00029833A834B835C833D8169817A818B816C
:101FB0009C813130B1F00E94F61420CF9B01AC011E
:101FC000282939294A295B2929833A834B835C8351
:101FD000CA01B9010E94201511CF0E94F614C50153
:101FE000B4010E94CC140ACF8695112311F0898187
:101FF0008170882309F402CF2D81229526952770C0
:10200000220F220F8D818F7090E0B0E0A0E04C0194
:102010005D01022E04C0880C991CAA1CBB1C0A94EA
:10202000D2F73D8160E070E0CB0134FF0FC06FE07C
:1020300070E080E090E004C0660F771F881F991F52
:102040002A95D2F76095709580959095498146952F
:10205000469543704D834230B1F0433019F19B01F6
:10206000AC01282939294A295B2929833A834B83E2
:102070005C833D8169817A818B819C813130B1F0B3
:102080000E94FC15BBCE9B01AC01282939294A29A5
:102090005B2929833A834B835C83CA01B9010E947F
:1020A0002616ACCE0E94FC15C501B4010E94D215C3
:1020B000A5CE3D81323F09F447C080F4303F79F12D
:1020C000313FD9F1832F805E8031D0F0112309F4A4
:1020D00056C001117ACE89818F7133C04D81433F43
:1020E000D1F1443F99F7112309F43FC089818F71E1
:1020F00089830E94691563E089810E9424177ECE3E
:102100005D815F705D8389818F71112321F00E9451
:1021100069158D81BACE0E948B158D81C4CE112395
:1021200041F0053008F06ACE89818F710E94B015A8
:1021300065CE063008F062CEF7CF89818F7111230A
:1021400039F00E9469155ACE89818F711123C9F324
:102150000E948B1553CE112329F089818F710E9423
:1021600054154CCE0E944A1549CE81E00E942D178D
:10217000023008F443CE82E00E942D173FCE0111B9
:10218000A5CE89818F71E4CF49814F706D81C701E0
:102190000E948B020E94451431CE49814F706D819F
:1021A000C7010E9418042ACE0F900F900F900F9035
:1021B0000F90DF91CF911F910F91FF90EF90DF90E3
:1021C000BF90AF909F908F9008950F931F93CF93E0
:1021D000DF93EC018B819C81892B29F08881998187
:1021E00089238F3F29F4DF91CF911F910F9108959B
:1021F000CE010E94AE028823B1F3688179818A8181
:102200000E94F0168C010E9450160E94C114B80161
:10221000CE01DF91CF911F910F910C94960E0E94E9
:10222000EA170E94FB170E94BD170E9414180E9413
:10223000281D0E94371C90E080E00E94990C90E0DD
:1022400080E00C94AF0C0E94D9170C940F110E94DF
:10225000E416282F892F82958F70903C80F48A3065
:10226000B0F4843020F4823090F480E00895863019
:10227000E1F781E0203E88F0213FB9F70EC08C30B5
:1022800011F08F3091F793FB882780F9089581E052
:10229000203F39F018F4203E40F70895243F29F7F5
:1022A000FCCF0895CF93DF9300D000D00F92CDB72D
:1022B000DEB70F900F900F900F900F90DF91CF919E
:1022C0000895CF93DF9300D000D000D0CDB7DEB714
:1022D00026960FB6F894DEBF0FBECDBFDF91CF912B
:1022E00008951F93CF93DF93E0915F0116E08091F3
:1022F00060018E1304C0DF91CF911F910895CE2FFE
:10230000D0E01E9FF0011124EF59FE4F4081518112
:1023100062817381848195810E946111FE013196F1
:10232000E770E5CF40919101509192016091930146
:102330007091940180919501909196010C94611196
:102340001F93CF93DF9380919601807FC1F480919A
:1023500093018823A1F080915F01C0916001609199
:102360009101709192014091940150919501D62F65
:10237000D723DA01A095B09516E0C81304C0DF9109
:10238000CF911F91089590E04115510511F0DF3F65
:1023900031F401968770F1CF2A0F3B1F17C0189FA9
:1023A000F001199FF00D1124EF59FE4F21812713E1
:1023B000F0CF20812613EDCF22812111EACF238196
:1023C00034812417350740F3241B350B283C310595
:1023D00000F7209196012F7020612093960126E04E
:1023E000289FF001299FF00D1124EA59FE4F8081AA
:1023F0008F708061808381E991E00E94E510DF9118
:10240000CF911F910C9471119F92AF92BF92CF9276
:10241000DF92EF92FF920F931F93CF93DF93CDB78D
:10242000DEB72B970FB6F894DEBF0FBECDBF8C0181
:1024300085E0F801DE01179601900D928A95E1F78B
:10244000D8014C9111965C9111971296EC901297CD
:102450008091940190919501009709F46BC12091AE
:10246000910130919201632F62236F3F09F462C1A1
:102470001396CD90DC9090909301992009F4F8C0C8
:10248000C816D90608F43FC0F601E81BF90BCF01C6
:10249000FF24F394883C910508F0F12C81E9A82EE3
:1024A00081E0B82E80919601982F907FFF2009F44B
:1024B000B7C0911180C0FE2C35132AC0241328C048
:1024C000E11026C08F708061809396010E94921166
:1024D000C5010E94E51080919601D80115968C9354
:1024E0008F2D2B960FB6F894DEBF0FBECDBFDF91B8
:1024F000CF911F910F91FF90EF90DF90CF90BF9001
:10250000AF909F900895809590958C0D9D1DC0CFA4
:10251000CD2829F0842F85238F3F09F019C180E051
:10252000B82FB170DB2EE0915F012091600136E0A1
:1025300080FD1CC0EE20A1F2809196018160809305
:102540009601F12CCDCF8E2F90E03E9FF00111240B
:10255000EF59FE4F6181651306C06081641303C0AB
:1025600062816E11E7CFFC013196E770E213EBCF89
:102570004F8358878F8198850E94E416292F2295D2
:102580002F70903260F0225F2F70223078F49F70AD
:1025900051F0F8019581907F31F4D12C0AC09F70E1
:1025A00011F08823D1F3805E8830B8F3C8010E940F
:1025B000E510FD2C95CF351306C0241304C0D801B7
:1025C000EE2009F47BC04F8358878F8198850E9445
:1025D0002711882309F4B8C0EE2009F4B5C0809112
:1025E0009601803270F020919101309192013A83EE
:1025F00029831B82DD82CC828E83CE0101960E94CC
:10260000E51086E0F801A1E9B1E001900D928A950C
:10261000E1F70E94A0110E949211FF24F39460CF71
:10262000911113C07C2DDB86CA866E2D8B850E948E
:10263000521181E991E00E94E51086E0F5011192C6
:102640008A95E9F70E9492114BCF3513BCCF241322
:10265000BACFE110B8CFD80115968C93C8010E946B
:10266000E51086E0F50111928A95E9F7F92C38CF4B
:10267000C816D90688F1B601681B790BCB01F12C7D
:10268000883C910508F047C0FE2CEE2009F45CC0A0
:10269000351330C024132EC08091960180FD21C0D7
:1026A000982F907FF1F0D80115968C931597903F55
:1026B00039F0982F907F905F8F70892B15968C93AF
:1026C000C8010E94E51086E0F801A1E9B1E001909F
:1026D0000D928A95E1F7B6CF809590958C0D9D1D52
:1026E000CECF86E0F801A1E9B1E001900D928A9584
:1026F000E1F7F6CE4F8358878F8198850E94271186
:1027000081117FCF80919601816080939601C801ED
:102710000E94E510E5CE7C2DDB86CA866E2D8B856A
:102720000E94521186E0E1E9F1E0DF011D928A95F5
:10273000E9F788CFEE2041F04F8358878F81988545
:102740000E94271181115DCFC8010E94E51065CF5D
:1027500081E08E25E5CE1F93CF93DF93CDB7DEB713
:102760002C970FB6F894DEBF0FBECDBF4F835887AE
:1027700069877A878B879C87CE0107960E9404120F
:10278000882369F08A859B85892B39F04F8158858C
:10279000842F85238F3F09F071C016E05FC086E06B
:1027A000FE013796DE01119601900D928A95E1F7B0
:1027B0008A859B85892B89F388859F8189238F3F13
:1027C00061F32091600130E0C9010196877099277B
:1027D00040915F014817190671F40E94231110926D
:1027E000600110925F0186E0E1E9F1E0DF011D92F6
:1027F0008A95E9F7D2CF96E0929FD001939FB00DD2
:102800001124AF59BE4FFE01319601900D929A9559
:10281000E1F7809360010E947111BFCF819FC001D9
:1028200011248F599E4F0E9404128823E9F0E091F1
:102830005F011E9FF0011124EF59FE4F408151812D
:1028400062817381848195810E94611180915F0111
:1028500090E001968770992780935F0180915F01D6
:10286000909160018913DACF2C960FB6F894DEBFF1
:102870000FBECDBFDF91CF911F91089569857A85F5
:102880008B859C850E94611188CFEF92FF920F93F8
:102890001F93CF93DF938C01892B89F0F12CEE24C9
:1028A000E394E8012196F8018491843709F457C034
:1028B000A0F4823009F43EC048F48130D1F0DF91B9
:1028C000CF911F910F91FF90EF9008959CEF980F7B
:1028D0009037A8F70E945D0D0AC0853709F44CC0F7
:1028E0009CE7980F903758F78F770E94390E8E012A
:1028F00016C00E5F1F4FFE01849190E2980F983032
:1029000060F48770FE2D01C0FF0F8A95EAF78F2FC4
:102910000E94ED170E94141802C00E945D0D8F2DB9
:10292000815008F4BECFEFE9FFE03197F1F700C026
:102930000000F6CF0E5F1F4FFE01849190E2980FCA
:10294000983050F48770FE2D01C0FF0F8A95EAF78A
:102950008F2F0E94F317DECF0E94390EE0CF0E5F5B
:102960001F4FFE01C491C150D0F28FE99FE0019743
:10297000F1F700C00000F7CF0E5F1F4FFE01F4908B
:10298000CECF08956093A0017093A1018093A2011E
:102990009093A3010C940F11CF93DF9300D000D03C
:1029A000CDB7DEB769837A838B839C838091A00146
:1029B0009091A101A091A201B091A30129813A8136
:1029C0004B815C81822B932BA42BB52B8093A00190
:1029D0009093A101A093A201B093A3010F900F9037
:1029E0000F900F90DF91CF910C940F11CF93DF9345
:1029F00000D000D0CDB7DEB769837A838B839C8308
:102A00008091A0019091A101A091A201B091A30198
:102A100029813A814B815C8182239323A423B523AE
:102A20008093A0019093A101A093A201B093A30170
:102A30000F900F900F900F90DF91CF910C940F118A
:102A4000CF93DF9300D000D0CDB7DEB769837A8310
:102A50008B839C838091A0019091A101A091A20100
:102A6000B091A30129813A814B815C818227932710
:102A7000A427B5278093A0019093A101A093A20160
:102A8000B093A3010F900F900F900F90DF91CF9113
:102A90000C940F1110929C0110929D0110929E01B6
:102AA00010929F010C940F1141E050E060E070E043
:102AB00004C0440F551F661F771F8A95D2F74093B5
:102AC0009C0150939D0160939E0170939F010C9413
:102AD0000F11282F81E090E0A0E0B0E004C0880F43
:102AE000991FAA1FBB1F2A95D2F740919C015091B4
:102AF0009D0160919E0170919F01842B952BA62BC7
:102B0000B72B80939C0190939D01A0939E01B0935D
:102B10009F010C940F1141E050E060E070E004C0B0
:102B2000440F551F661F771F8A95D2F74095509521
:102B30006095709580919C0190919D01A0919E015E
:102B4000B0919F0184239523A623B72380939C01F2
:102B500090939D01A0939E01B0939F010C940F113F
:102B6000282F81E090E0A0E0B0E004C0880F991F1A
:102B7000AA1FBB1F2A95D2F740919C0150919D013D
:102B800060919E0170919F0184279527A627B72702
:102B900080939C0190939D01A0939E01B0939F010F
:102BA0000C940F11CF93DF9300D000D0CDB7DEB7D8
:102BB00069837A838B839C8380919C0190919D0192
:102BC000A0919E01B0919F0129813A814B815C8146
:102BD000822B932BA42BB52B80939C0190939D016A
:102BE000A0939E01B0939F010F900F900F900F90B4
:102BF000DF91CF910C940F11CF93DF9300D000D0D1
:102C0000CDB7DEB769837A838B839C8380919C01E7
:102C100090919D01A0919E01B0919F0129813A81DF
:102C20004B815C8182239323A423B52380939C0151
:102C300090939D01A0939E01B0939F010F900F90E0
:102C40000F900F90DF91CF910C940F11CF93DF93E2
:102C500000D000D0CDB7DEB769837A838B839C83A5
:102C600080919C0190919D01A0919E01B0919F0146
:102C700029813A814B815C8182279327A427B5273C
:102C800080939C0190939D01A0939E01B0939F011E
:102C90000F900F900F900F90DF91CF910C940F1128
:102CA0000895E82FE90F8E2F877041E001C0440F8F
:102CB0008A95EAF7E695E695E69585E0E89FF001C6
:102CC0001124E956FE4F30E020E070E05191DF0121
:102CD0001197CB01022E02C0969587950A94E2F7D0
:102CE000817081958527842385278C932F5F3F4FA3
:102CF0002530310559F70895E82FE90F9E2F977079
:102D0000E695E695E69585E0E89FF0011124E95601
:102D1000FE4F50E040E080E0219130E0092E02C0FB
:102D2000369527950A94E2F721703327042E01C0C7
:102D3000220F0A94EAF7822B4F5F5F4F453051050F
:102D400059F70895BF92CF92DF92EF92FF920F93BF
:102D50001F93CF93DF938C01C0909C01D0909D0175
:102D6000E0909E01F0909F018091A0019091A101BF
:102D7000A091A201B091A301C82AD92AEA2AFB2A6C
:102D8000CFE1D0E0BC2ED701C6010C2E04C0B69511
:102D9000A795979587950A94D2F780FD0EC0219745
:102DA00088F7B12C8B2DDF91CF911F910F91FF9060
:102DB000EF90DF90CF90BF900895B8018C2F0E94C4
:102DC0002F04019761F3EECFCF93DF93D82FC92F54
:102DD0000E94A2166D2F7C2FDF91CF910C942F04AF
:102DE0001F93CF93DF93162FD72F90915E019923D6
:102DF00039F0862F972FDF91CF911F910C94E41615
:102E0000882391F0862F972F0E94A216C82F682F33
:102E1000812F9D2F0E945116612F7D2F8C2FDF91C6
:102E2000CF911F910C942F04862F972F0E947C1610
:102E3000C82FF2CF8091A401859585958595089539
:102E40008091A4018770089598E0899F90011124D2
:102E5000622B6093A4010C9469159091A401809554
:102E600089238093A401282F277061F4282F082E2E
:102E7000000C330B9217130629F0859585958595DF
:102E80000C948B1508959091A401977081E009F43A
:102E900080E00895909113019923E1F090911A0236
:102EA00097FF18C0E82FE695E695E695EF3139F1E2
:102EB0002091010130910201E20FF32FF11D877083
:102EC00021E030E001C0220F8A95EAF78181822B50
:102ED000818308952091010130910201F901329618
:102EE0009FEF40E05191851751F09F3F19F4511128
:102EF00001C0942F4F5F4E31A9F79F3F09F4089509
:102F0000290F311D97FD3A95F9018283089590911B
:102F10001301992301F190911A0297FF1CC0E82F29
:102F2000E695E695E695EF3139F120910101309172
:102F30000201E20FF32FF11D877021E030E0A901BB
:102F400002C0440F551F8A95E2F7CA01809591810E
:102F50008923818308952091010130910201F901B3
:102F60003296205E3F4F9191891303C0DF01119784
:102F70001C92E217F307B9F7089581E090E0E09121
:102F80000101F0910201E80FF91F108201968032D1
:102F90009105A9F708959091C801982B9093C801C5
:102FA0000895982F90958091C80189238093C80136
:102FB00008951092C80108959091C701982B90939D
:102FC000C7010895982F90958091C7018923809318
:102FD000C70108951092C70108959091C601982BDA
:102FE0009093C6010895982F90958091C6018923EA
:102FF0008093C60108951092C60108958093A5019B
:1030000008951092A50108952091010130910201C7
:10301000F9013196205E3F4F80E0919191118F5FD1
:10302000E217F307D1F70895E0910101F091020151
:103030008091C8018083E0910101F09102018081BB
:103040009091C701892B8083E0910101F0910201E9
:1030500080819091C601892B80839091A50199234D
:1030600061F0E0910101F09102018081892B808360
:103070000E94041881111092A50180910101909184
:1030800002010C94830C6DEE7EEF90E080E00E94D4
:10309000A72560E082E090E00E94892560E083E05F
:1030A00090E00E94892560E084E090E00E948925FC
:1030B00060E085E090E00E94892540E050E0BA01A0
:1030C00088E090E00C949B2590E080E00E948325AE
:1030D0009C0181E02D3E3E4F09F080E0089582E0A2
:1030E00090E00C947525682F82E090E00C9489257F
:1030F00083E090E00C947525682F83E090E00C94B9
:10310000892584E090E00C947525682F84E090E098
:103110000C94892580912002843039F11092CA01E3
:1031200088E190E020E40FB6F894A89580936000C1
:103130000FBE2093600080E00E94160483B7817F59
:10314000846083BF83B7816083BF7894889583B799
:103150008E7F83BF0FB6F894A89580916000886138
:1031600080936000109260000FBE08950895089546
:103170000E94B6180E947F060E94B71880E00E9445
:10318000B506982F81E0911101C080E008950E945A
:1031900023110E94770C0C9416041F921FB61F92E5
:1031A00011248F939F93AF93BF938091CA01811194
:1031B00013C08091160290911702A0911802B0914D
:1031C00019024196A11DB11D80931602909317021A
:1031D000A0931802B0931902BF91AF919F918F9164
:1031E0001F901FBE1F90189582E084BD93E095BD8F
:1031F0009AEF97BD80936E0008952FB7F894809151
:10320000160290911702A0911802B09119022FBFD7
:103210000895CF92DF92EF92FF929C014FB7F894FE
:103220008091160290911702A0911802B091190294
:103230004FBF6C017D01EE24FF24A90170E060E026
:10324000C416D506E606F70638F0821B930BFF90EE
:10325000EF90DF90CF9008950197F7CF1F921FB6A0
:103260001F9211248F939F93AF93BF938091160267
:1032700090911702A0911802B09119020196A11D18
:10328000B11D8093160290931702A0931802B09379
:103290001902BF91AF919F918F911F901FBE1F90F8
:1032A00018950E941E21F8942FEF87EA91E621508D
:1032B00080409040E1F700C0000087E090EBDC0127
:1032C0008093290290932A02A0932B02B0932C02A0
:1032D00088E19CE00FB6F894A895809360000FBE3B
:1032E00090936000FFCFCF93C82F80E00E94B50677
:1032F00080FF0BC060E070E080E00E941904C817F6
:10330000190619F481E0CF91089580E0FCCFCF93A6
:10331000C82F8CE20E947319882321F08C2FCF9143
:103320000C94731980E0CF910895CF93DF9300D070
:1033300000D0CDB7DEB70E946418811102C00E9490
:10334000431895E6998308C00E947F068FE39CE9A5
:103350000197F1F700C00000A981A150A983A11134
:10336000F3CF89E20E948719811110C18AE20E947D
:10337000871981110E94431885E00E9487198111E5
:103380000E9451190E946F188093C90187E00E9422
:103390008719882371F08BE10E948719882309F42B
:1033A000D1C09091C901892F8D7F91FF8260809358
:1033B000C9018091C9010E9473180E94811890E090
:1033C00090931B0280931A0280EE0E948719882333
:1033D00041F090911A02892F8E7F90FF8160809337
:1033E0001A0289E30E948719882341F090911A02FA
:1033F000892F8D7F91FF826080931A0282EE0E9456
:103400008719882341F090911A02892F8B7F92FFB0
:10341000846080931A0286EE0E948719882341F007
:1034200090911A02892F877F93FF886080931A02F8
:1034300083EE0E948719882341F090911A02892F08
:103440008F7E94FF806180931A0285E30E94871922
:10345000882341F090911A02892F8F7D95FF806219
:1034600080931A0281E30E948719882341F090918A
:103470001A02892F8F7B96FF806480931A0281E164
:103480000E948719882341F090911A02892F97FB97
:1034900087F9805880931A0280911A020E94851839
:1034A00087E20E94871989838EE10E948719882309
:1034B00019F0B981B260B9838FE10E94871988231E
:1034C00019F029812460298380E20E9487198823CA
:1034D00019F039813860398381E20E948719882385
:1034E00019F049814061498382E20E94871988234B
:1034F00019F059815062598383E20E948719882309
:1035000019F089818064898384E20E948719882365
:10351000B1F199819068998389810E947C183981E1
:10352000232F30E050E040E029833A834B835C83D3
:10353000CA01B9010F900F900F900F90DF91CF91BA
:103540000C94C2148EE00E948719882339F0909160
:10355000C901892F8B7F92FF846029CF80E10E946F
:1035600087199091C901882329F0892F877F93FFBC
:1035700088601DCF892F8E7F90FF816018CFA98131
:10358000A111CACF0E947818282FCBCF0F900F908F
:103590000F900F90DF91CF9108958091CD0180FF22
:1035A00012C06091060185E0689FB00111247595F5
:1035B00067957595679560387105A8F56115710572
:1035C000A1F1862F089581FF09C06091060185E071
:1035D000689FB001112475956795EDCF6091060144
:1035E00082FD0AC08091CE018823D1F0909105011F
:1035F00060910601891728F085E0689FB0011124C9
:10360000DACF869FB001112485E0869F9001879FC5
:10361000300D1124692F70E0C9010E945B25CBCFCA
:1036200065E070E0CECF8FE7089581E00895809146
:10363000CD0180FF0CC06091040170E07595679525
:10364000759567956115710549F1862F089581FF7C
:1036500006C06091040170E075956795F3CF6091A5
:10366000040182FD0BC09091CE019923A1F06091DD
:10367000030180910401961738F0682F70E06038DC
:10368000710500F38FE70895899FC001112470E050
:103690000E945B25F4CF61E070E0D7CF81E0089510
:1036A000803F31F40E94CD1A81958093D101089515
:1036B000813F19F40E94CD1AF8CF823F31F40E9465
:1036C000CD1A81958093D0010895833F19F40E940B
:1036D000CD1AF8CF893F29F40E94171B8093D2019D
:1036E00008958A3F21F40E94171B8195F7CF8B3FE5
:1036F00031F40E94171B81958093D30108958C3F6C
:1037000019F40E94171BF8CF843F31F48091CF0148
:1037100081608093CF010895853F21F48091CF018E
:103720008260F7CF863F21F48091CF018460F1CF92
:10373000873F21F48091CF018860EBCF883F21F44F
:103740008091CF018061E5CF8D3F31F48091CD0133
:1037500081608093CD0108958E3F21F48091CD0149
:103760008260F7CF8F3FB9F78091CD018460F1CFB0
:103770009091D001803F41F48091D10187FD10925A
:10378000D101992371F00895813F29F48091D101ED
:103790001816ACF3F6CF823F81F497FFF2CF109268
:1037A000D0018091D1019091D201892B9091D301C8
:1037B000892B49F71092CE010895833F19F4191609
:1037C00074F3DFCF893F39F48091D2011816CCF61B
:1037D0001092D201D6CF8A3F29F48091D20187FF7F
:1037E000D0CFF6CF8B3F39F48091D30187FFC9CF7B
:1037F0001092D301C6CF8C3F29F48091D3011816C3
:10380000BCF3BFCF843F31F48091CF018E7F809392
:10381000CF01B7CF853F21F48091CF018D7FF7CFC6
:10382000863F21F48091CF018B7FF1CF873F21F438
:103830008091CF01877FEBCF883F21F48091CF012A
:103840008F7EE5CF8D3F31F48091CD018E7F8093C7
:10385000CD0197CF8E3F21F48091CD018D7FF7CFA1
:103860008F3F09F08ECF8091CD018B7FF0CF8FEC11
:1038700091E00E948E0C0E94FD189093CC018093E1
:10388000CB0108951F93CF93DF9300D000D000D0D9
:10389000CDB7DEB78091CB019091CC010E94091980
:1038A000AC018091CE012091070130E0811106C06A
:1038B000209108019AE0299F900111244217530793
:1038C00088F02091D001A091D101A9831091D2015B
:1038D000B091D301BE8321110FC09A2F912B9B2B46
:1038E00009F0B2C026960FB6F894DEBF0FBECDBF6A
:1038F000DF91CF911F9108958F3F19F08F5F8093D3
:10390000CE01121624F40E94CD1A8093D00180912A
:10391000D00187FF05C00E94CD1A81958093D00108
:103920002981121624F40E94CD1A8093D10180912E
:10393000D10187FF05C00E94CD1A81958093D101E6
:103940008091D001882309F455C03091D1013D8385
:10395000332309F44FC0282F880F330B440B550B2A
:1039600029833A834B835C83CA01B9010E944E24A8
:1039700023E333E343E35FE369837A838B839C83AD
:1039800069817A818B819C810E94B22469837A83C8
:103990008B839C8369817A818B819C810E94162410
:1039A0006093D0018D81082E000C990BAA0BBB0BE4
:1039B00089839A83AB83BC83BC01CD010E944E24D2
:1039C00023E333E343E35FE369837A838B839C835D
:1039D00069817A818B819C810E94B22469837A8378
:1039E0008B839C8369817A818B819C810E941624C0
:1039F0006093D101111624F40E94171B8093D20109
:103A00008091D20187FF05C00E94171B819580938A
:103A1000D2019E81191624F40E94171B8093D301B2
:103A20008091D30187FF05C00E94171B8195809369
:103A3000D30126960FB6F894DEBF0FBECDBFDF913F
:103A4000CF911F910C94371C8F3F09F057CF68CF4F
:103A500085E0EFECF1E0DF011D928A95E9F7109225
:103A6000CE011092CD0108958091F4010895CF9375
:103A7000DF9300D00F92CDB7DEB720912002243023
:103A800019F523E029838A839B832093E9008FEF34
:103A90009091E800815095FD06C095ED9A95F1F75B
:103AA00000008111F5CF8091E80085FF0DC050E046
:103AB00040E063E070E0CE0101960E94961F809185
:103AC000E8008E778093E8000F900F900F90DF91C1
:103AD000CF910895CF93DF9300D00F92CDB7DEB78B
:103AE0009C0180912002843031F582E08983205846
:103AF00031093B832A8383E08093E9008FEF909123
:103B0000E800815095FD06C095ED9A95F1F700000B
:103B10008111F5CF8091E80085FF0DC050E040E0B5
:103B200063E070E0CE0101960E94961F8091E8004C
:103B30008E778093E8000F900F900F90DF91CF91D8
:103B40000895209120022430F1F422E02093E9002E
:103B50002FEF3091E800215035FD06C035ED3A9544
:103B6000F1F700002111F5CF2091E80025FF0BC0EF
:103B700050E040E065E070E00E94961F8091E80010
:103B80008E778093E8000895CF93DF93D82FC92FC5
:103B9000809120028430F1F4909113019923E9F08F
:103BA00090911A0297FF19C08093E9008FEF9091CE
:103BB000E800815095FD06C095E19A95F1F7000067
:103BC0008111F5CF8091E80050E040E060E270E0C4
:103BD00085FD1AC0DF91CF91089581E08093E900BF
:103BE0008FEF9091E800815095FD06C095ED9A9574
:103BF000F1F700008111F5CF8091E80085FFEACF51
:103C000050E040E068E070E08D2F9C2F0E94961FEE
:103C10008091E8008E778093E80080E2ED2FFC2F02
:103C2000A4EDB1E001900D928A95E1F7D3CF809198
:103C30001F02811109C00E941E210E947B218091D8
:103C4000E20084608093E200089510921F020895BC
:103C5000089508950C94C71842E061EC81E00E9439
:103C60009A2042E061EC82E00E949A2042E061ECFE
:103C700083E00E949A2042E261EC84E00C949A2056
:103C800080912202893089F148F4823009F494C08D
:103C9000833009F44FC0813041F008958A3009F42F
:103CA0007BC08B3009F461C0089580912102813A74
:103CB00009F03FC08091E800877F8093E800809101
:103CC000250290912602892B61F460E284ED91E057
:103CD00070E00E94E51F8091E8008B778093E800F8
:103CE000089560E090E080E0F3CF8091210281327E
:103CF00001F58091250290912602009711F003971B
:103D0000C1F48091E800877F8093E8008091E8000B
:103D100082FF0BC08091F1008093F4018091E80054
:103D20008B778093E8000C94CE2080912002811143
:103D3000EDCF089580912102813AD9F78091250233
:103D400090912602892BA9F78091E800877F8093C4
:103D5000E8008091E80080FFFCCF80911301809300
:103D6000F1008091E8008E77DCCF809121028132D2
:103D700001F78091250290912602892BD1F680913E
:103D8000E800877F8093E8000E94CE208091230284
:103D9000809313010C94231180912102813249F602
:103DA0008091E800877F8093E8000E94CE20809178
:103DB00024028093F501089580912102813A09F04F
:103DC000B8CF8091E800877F8093E8008091E80079
:103DD00080FFFCCF8091F501C2CF84B7877F84BF7D
:103DE0000FB6F894A8958091600088618093600078
:103DF000109260000FBE80E8809361001092610015
:103E00000E94C60C0E941E210E947B218091E2002C
:103E100084608093E20078940E94FB230E94C80C87
:103E200089E091E00E94720C80912002853029F097
:103E30000E94D00C0E943F0CF7CF0E948A188091FC
:103E40001E02882389F30E94B818882369F30E9410
:103E5000801FEACF9C01DA01892F992783309105D1
:103E6000C1F068F48130910509F445C0029761F40E
:103E70008DE690E029E033E02D933C930895813264
:103E80009105E1F0829739F190E080E030E020E0A8
:103E9000F3CFC9019927213059F08230910559F0AB
:103EA000E5E0F3E0892B81F7849190E09F01E4CF76
:103EB000EDEEF2E0F9CFE9EDF2E0F6CF643020F775
:103EC000E62FF0E0EE0FFF1FE05EFE4F2081318114
:103ED00089E090E0D1CF6430B8F670E0FB01EE0FDE
:103EE000FF1FE85EFE4F208131816C5E7E4FFB013B
:103EF000808190E0C1CF82E190E026E733E0BCCF43
:103F000080E189BD82E189BD09B400FEFDCF8091C9
:103F1000D8008F7D8093D8008091E00082608093EC
:103F2000E0008091E00081FDFCCF0895AF92BF9248
:103F3000CF92DF92FF920F931F93CF93DF936C0189
:103F4000EB018A010E94ED20F82E811123C001159A
:103F5000110539F0F80180819181C81BD90BC80E79
:103F6000D91EB12CA12C2097A9F08091E80085FDE5
:103F700022C08091E8008E778093E800011511053A
:103F8000A1F0F80180819181A80EB91EB182A082B2
:103F900085E0F82E8F2DDF91CF911F910F91FF902B
:103FA000DF90CF90BF90AF9008950E94ED208823BE
:103FB000D1F2F82EEFCFF60181916F018093F100DD
:103FC0002197FFEFAF1ABF0ACECFFC01CB012091A2
:103FD0002702309128022617370790F0009729F41E
:103FE0002091E8002E772093E80040E0009751F4FC
:103FF000411108C08091E80082FF31C080E008953F
:10400000C901F3CF209120022223A9F12530A9F183
:104010002091E80023FD2DC02091E80022FDEACF89
:104020002091E80020FFE2CF3091F3002091F200D0
:10403000009719F02830310558F041E0283031055B
:1040400009F040E02091E8002E772093E800CECFE1
:1040500041914093F10001972F5F3F4FE9CF80914D
:104060002002882341F0853041F08091E80083FFF1
:10407000C1CF81E0089582E0089583E00895FC01B6
:10408000CB0120912702309128022617370790F0A4
:10409000009729F42091E8002E772093E80040E073
:1040A000009751F4411108C08091E80082FF32C0AE
:1040B00080E00895C901F3CF209120022223B1F1BD
:1040C0002530B1F12091E80023FD2EC02091E800B9
:1040D00022FDEACF2091E80020FFE2CF3091F300EB
:1040E0002091F200009719F02830310558F041E096
:1040F0002830310509F040E02091E8002E77209328
:10410000E800CECF44914093F100319601972F5FA4
:104110003F4FE8CF80912002882341F0853041F065
:104120008091E80083FFC0CF81E0089582E0089588
:1041300083E00895982F973028F08F708093E900DE
:1041400081E008959093E900242F762F50E098178E
:1041500031F07091EC002091ED005091F00021FDC4
:1041600002C09F5FE8CF3091EB003E7F3093EB00C1
:104170003091ED003D7F3093ED003091EB003160E8
:104180003093EB007093EC002093ED005093F0001F
:104190002091EE0027FDE5CF80E008958091210277
:1041A00087FF13C08091E80082FF06C08091E8007D
:1041B0008B778093E80004C0809120028111F2CFB8
:1041C0000895809120028823D9F38091E80080FF30
:1041D000F8CF8091E8008E77ECCF2091E400309109
:1041E000E50095E6A9012091EC00822F817020FF67
:1041F00006C08091E80080FF06C080E0089520910D
:10420000E80022FD1AC080912002882389F08530C1
:1042100089F08091EB0085FD0FC02091E400309182
:10422000E50042175307F9F29150E1F684E0089552
:1042300082E0089583E0089581E008950E948C2132
:104240000E949421E0EEF0E0808181608083E8EDBF
:10425000F0E080818F77808319BCA7EDB0E08C916E
:104260008E7F8C9380818F7E808310921F020895B1
:104270000F931F93CF93DF930E948C210E94942170
:10428000C8EDD0E088818F778883888180688883B3
:1042900088818F7D888319BC1092200210921C02A5
:1042A00010921E0210921D0200EE10E0F8018081B3
:1042B0008B7F808388818160888342E060E080E03A
:1042C0000E949A20E1EEF0E080818E7F8083E2EE12
:1042D000F0E0808181608083808188608083F80144
:1042E00080818E7F8083888180618883DF91CF91F8
:1042F0001F910F910895E8EDF0E080818F7E80831B
:10430000E7EDF0E080818160808384E082BF81E01E
:1043100080931F020C943821E8EDF0E080818E7FBD
:1043200080831092E20008951092DA001092E1006A
:1043300008951F920F920FB60F9211242F933F935F
:104340004F935F936F937F938F939F93AF93BF939D
:10435000EF93FF938091E10082FF0BC08091E20018
:1043600082FF07C08091E1008B7F8093E1000E9473
:10437000FA238091DA0080FF19C08091D80080FF75
:1043800015C08091DA008E7F8093DA008091D90089
:1043900080FF94C080E189BD82E189BD09B400FE3F
:1043A000FDCF81E0809320020E94171E8091E100E2
:1043B00080FF19C08091E20080FF15C08091E2006B
:1043C0008E7F8093E2008091E20080618093E20022
:1043D0008091D80080628093D80019BC85E08093DA
:1043E00020020E94291E8091E10084FF29C0809153
:1043F000E20084FF25C080E189BD82E189BD09B466
:1044000000FEFDCF8091D8008F7D8093D8008091F1
:10441000E1008F7E8093E1008091E2008F7E8093A7
:10442000E2008091E20081608093E20080911C02B2
:10443000882309F449C084E0809320020E942A1E48
:104440008091E10083FF29C08091E20083FF25C0B5
:104450008091E100877F8093E10082E080932002D9
:1044600010921C028091E1008E7F8093E100809188
:10447000E2008E7F8093E2008091E2008061809371
:10448000E20042E060E080E00E949A208091F0002B
:1044900088608093F0000E94281EFF91EF91BF91E9
:1044A000AF919F918F917F916F915F914F913F91CC
:1044B0002F910F900FBE0F901F90189519BC10925E
:1044C00020020E94251E72CF8091E30087FD02C06A
:1044D00081E0B2CF83E0B0CF1F920F920FB60F9260
:1044E00011242F933F934F935F936F937F938F93F9
:1044F0009F93AF93BF93CF93DF93EF93FF93D091AD
:10450000E900DF708091EC00C82FC17080FDC0E829
:104510001092E9008091F000877F8093F0007894FA
:104520000E94B0221092E9008091F0008860809390
:10453000F000CD2BCF70C093E900FF91EF91DF9198
:10454000CF91BF91AF919F918F917F916F915F912B
:104550004F913F912F910F900FBE0F901F90189584
:104560001F93CF93DF93CDB7DEB7AA970FB6F8941A
:10457000DEBF0FBECDBF81E292E0FC01019620912B
:10458000F100208322E089329207B9F70E94401E91
:104590008091E80083FF16C1809121029091220250
:1045A0009A3008F00FC1E92FF0E0E651FA4D0C9473
:1045B0006F25803881F0823809F004C1809125028E
:1045C0008F708093E9008091EB0085FB882780F94C
:1045D0001092E90006C080911D0290911E02911177
:1045E00082609091E800977F9093E8008093F100BB
:1045F0001092F1008091E8008E77E0C0882309F4E2
:10460000CEC0823009F0DEC0809123028111D1C07A
:10461000809125028F7009F4D5C08093E900209124
:10462000EB0020FFC6C0933031F48091EB00806234
:104630008093EB00BEC09091EB0090619093EB00F3
:1046400021E030E001C0220F8A95EAF72093EA00CA
:104650001092EA008091EB008860EACF8111B2C02D
:10466000109123021F778091E3008078812B809343
:10467000E3008091E800877F8093E8000E94CE20CD
:104680008091E80080FFFCCF8091E30080688093F8
:10469000E30082E0111183E08093200293C08058F0
:1046A000823008F08FC080912302909124028C3DCB
:1046B00023E09207A1F583E08A838AE289834FB7DA
:1046C000F894DE01139620E03EE051E2E32FF0E0A3
:1046D00050935700E49120FF03C0E295EF703F5FD5
:1046E000EF708E2F90E0EA30C0F0C7968D939D93C7
:1046F0002F5F243159F74FBF8091E800877F809367
:10470000E8006AE270E0CE0101960E94E51F809108
:10471000E8008B778093E80055C0C096E7CFAE01E4
:104720004F5F5F4F609125020E942A1FBC01892BB9
:1047300009F448C08091E800877F8093E800898170
:104740009A810E943F20E3CF8038E1F58091E80014
:10475000877F8093E80080911C028093F1004ACF0C
:10476000811130C090912302923060F58091E80071
:10477000877F8093E80090931C020E94CE20809156
:104780001C02882311F084E005C08091E30087FDBE
:10479000FACF81E0809320020E942C1E13C08091EA
:1047A0002302813079F481E0933009F080E0809336
:1047B0001E021092E9008091E800877F8093E80054
:1047C0000E94CE208091E80083FF0AC08091E8001B
:1047D000877F8093E8008091EB0080628093EB00FC
:1047E000AA960FB6F894DEBF0FBECDBFDF91CF9172
:1047F0001F9108950895CF93809120028823A1F0FE
:10480000C091E900CF709091EC00892F817090FDEC
:1048100080E8C82B1092E9008091E80083FD0E9497
:10482000B022CF70C093E900CF9108950E941D245B
:104830006894B1110C94AC2408950E94912488F0DE
:104840009F5798F0B92F9927B751B0F0E1F0660F54
:10485000771F881F991F1AF0BA95C9F714C0B13095
:1048600091F00E94AB24B1E008950C94AB24672F23
:10487000782F8827B85F39F0B93FCCF386957795C4
:104880006795B395D9F73EF49095809570956195AD
:104890007F4F8F4F9F4F0895E89409C097FB3EF4D8
:1048A00090958095709561957F4F8F4F9F4F99237D
:1048B000A9F0F92F96E9BB279395F69587957795FB
:1048C0006795B795F111F8CFFAF4BB0F11F460FFBB
:1048D0001BC06F5F7F4F8F4F9F4F16C0882311F013
:1048E00096E911C0772321F09EE8872F762F05C027
:1048F000662371F096E8862F70E060E02AF09A95C2
:10490000660F771F881FDAF7880F9695879597F9B6
:10491000089557FD9058440F551F59F05F3F71F0AF
:104920004795880F97FB991F61F09F3F79F0879516
:104930000895121613061406551FF2CF4695F1DF9F
:1049400008C0161617061806991FF1CF869571052F
:10495000610508940895E894BB2766277727CB0163
:1049600097F908950E94C5240C9436250E942825A5
:1049700038F00E942F2520F0952311F00C941F256C
:104980000C94252511240C94AC240E94892470F3E6
:10499000959FC1F3950F50E0551F629FF001729FE4
:1049A000BB27F00DB11D639FAA27F00DB11DAA1FF3
:1049B000649F6627B00DA11D661F829F2227B00D40
:1049C000A11D621F739FB00DA11D621F839FA00DCB
:1049D000611D221F749F3327A00D611D231F849F1B
:1049E000600D211D822F762F6A2F11249F57504072
:1049F0009AF0F1F088234AF0EE0FFF1FBB1F661FED
:104A0000771F881F91505040A9F79E3F510580F0B5
:104A10000C941F250C94AC245F3FE4F3983ED4F330
:104A2000869577956795B795F795E7959F5FC1F759
:104A3000FE2B880F911D9695879597F9089597F904
:104A40009F6780E870E060E008959FEF80EC089534
:104A500000240A941616170618060906089500245D
:104A60000A9412161306140605060895092E0394D7
:104A7000000C11F4882352F0BB0F40F4BF2B11F44B
:104A800060FF04C06F5F7F4F8F4F9F4F0895AA1B39
:104A9000BB1B51E107C0AA1FBB1FA617B70710F029
:104AA000A61BB70B881F991F5A95A9F7809590955B
:104AB000BC01CD01089597FB072E16F4009407D092
:104AC00077FD09D00E94472507FC05D03EF490955C
:104AD00081959F4F0895709561957F4F0895EE0FD2
:104AE000FF1F0590F491E02D0994F999FECF92BD36
:104AF00081BDF89A992780B50895A6E1B0E044E019
:104B000050E00C94AF25A8E1B0E042E050E00C94F6
:104B1000AF25262FF999FECF92BD81BDF89A019756
:104B200000B4021639F01FBA20BD0FB6F894FA9AF5
:104B3000F99A0FBE08950396272F0E948A250E9496
:104B40008925252F0E948A25242F0C948A250196D9
:104B5000272F0E948A250C948925DC01CB01FC01BA
:104B6000F999FECF06C0F2BDE1BDF89A319600B4C6
:104B70000D9241505040B8F70895F894FFCF540378
:104B800059035E03630368036D037203CA03EF03F3
:104B90007703830387038B038F03930397039B039D
:104BA0009F03A303A703AB03AF03B303B703BB0385
:104BB000BF03C303CE0ECE0E260F260F6A0F860F3D
:104BC000FE0EFE0E910FFE0E59105910C410FE0E6F
:104BD000FE0ECD10D922FE22E223FE22E2232E2356
:084BE0004F23E223A423B023BC
:104BE800FFA6012808140A321E341DC41DA11D6A1F
:104BF8001D371D01404D36394404F703C1038803AE
:084C08001B0334034D03660396
:00000001FF
